:1000000021EF01F050756C736120756E20426F74A2
:100010006F6E000020202020202020202020202083
:1000200020202020000050756C736173746520429D
:100030006F746F6E2031203C2D0050756C736173AE
:10004000746520426F746F6E2032203C2D00507515
:100050006C736173746520426F746F6E2033203C43
:100060002D0050756C736173746520426F746F6EF0
:100070002034203C2D00EA6A0C0EE96EEF500EE0B1
:10008000010E016E006A002EFED7012EFBD74A0E2C
:10009000006E002EFED700D0EF2EF2D712001138DE
:1000A000F00B006E0F0E8C1400108C6E00008C8014
:1000B00000D08C9012008350006E00380F0B016E40
:1000C00012000F0E9514F009956E8C8400008C8040
:1000D0000000F1DF01C011F08C9000008C80000066
:1000E000EADF01C010F08C900F0E9514956E113858
:1000F000006EF00E001600501010016E85EF00F03B
:100100009590959295948C92DCD701C010F001BE29
:10011000FBD78C920EB08C8200008C9400008C90E7
:100120000F38106E0F0E101610C011F0B8DF0F5000
:100130000F0B106E116EB3DF1200280E086E0C0E3E
:10014000096E010E0A6E060E0B6E8C908C928C94CA
:100150000F0E9514956E9590959295940F0E0C6ECA
:100160008ADF010E076E0750030808E3030E116EC5
:1001700096DF050E0C6E7FDF072AF5D7020E116E93
:100180008EDF050E0C6E77DF076A075003080DE35C
:10019000036A0750080FE96E000E0320EA6EEFCFE6
:1001A0000FF00E6AADDF072AF0D731EF01F00B2C0C
:1001B00001D003D0400E0C6E01D00C6A010E0A5C17
:1001C0000C260C5080090D6E0E6A0F6E99DF12001E
:1001D0000950070A07E00B0A0AE0060A10E0020AC3
:1001E00014E018D0010E0A6E0B6EE1DF18D00E6A13
:1001F000010E0F6E85DF020E0C6E3DDF10D0010E7A
:100200000A6E020E0B6ED3DF0AD00E6A100E0F6E4E
:1002100077DF05D0010E0E6E09C00FF071DF1BEF06
:1002200001F00900F5520CE0F6CF07F0F7CF08F027
:10023000F5CF09F0CDD707C0F6FF08C0F7FFF1D71B
:100240001200F86AD09E046A066A056AC150C00BA3
:100250000F09C16E070EB46EFF0E926E000E936E04
:100260006CD7936A8A6A010E0A6E0B6EA0DF040EC9
:10027000F66E000EF76ED5DF928080B005D0010ECD
:10028000046EC80E0C6EF7DE928280B205D0020EAC
:10029000046EC80E0C6EEFDE928480B405D0030E9F
:1002A000046EC80E0C6EE7DE928680B605D0040E92
:1002B000046EC80E0C6EDFDE010E0A6E020E0B6EAF
:1002C00076DF0450FB0F20E2050F86EF01F0140EDD
:1002D000F66E000EF76EA5DF17D0260EF66E000E36
:1002E000F76E9FDF11D03A0EF66E000EF76E99DFB3
:1002F0000BD04E0EF66E000EF76E93DF05D0620E39
:10030000F66E000EF76E8DDFB7D70300E824F76AAC
:10031000F736270FF66E030EF7220A00F550FA6E35
:100320000800F550F96ECE02DA02E602F202FE0291
:020000040030CA
:0E0000003FCF3E1E0087A1000FC00FE00F4053
:00000001FF
;PIC18F4550
;CRC=CEB9  CREATED="17-oct.-24 15:28"
