:100000009CEF01F0F76A140FF66E000EF72209005C
:10001000F5501200313233413435364237383943E6
:100020002A302344494E47524553452050415353AB
:10003000574F52443A200000434F4449474F204312
:100040004F52524543544F200000434F4449474FBD
:10005000494E434F52524543544F00002020202028
:100060002020202020202020202020200000494E79
:1000700047524553452050415353574F52443A201D
:100080000000EA6A150EE96EEF500EE00F0E016EE9
:10009000006A002EFED7012EFBD78F0E006E002EB9
:1000A000FED70000EF2EF2D712001A38F00B006EC8
:1000B0000F0E8A1400108A6E00008A80070E006EF0
:1000C000002EFED700D08A9012008150006E0038BA
:1000D0000F0B016E12000F0E9314F009936E8A84B9
:1000E00000008A800000F1DF01C01AF08A90000051
:1000F0008A80030E006E002EFED700D0E6DF01C01E
:1001000019F08A900F0E9314936E1A38006EF00E49
:10011000001600501910016E93EF00F09390939227
:1001200093948A92D8D701C019F001BEFBD78A9266
:1001300017B08A8200008A9400008A901838196EDD
:100140000F0E191619C01AF0B0DF18500F0B196EE8
:100150001A6EABDF1200280E116E0C0E126E010E1D
:10016000136E060E146E8A908A928A940F0E931460
:10017000936E9390939293940F0E156E82DF010EFF
:10018000106E1050030808E3030E1A6E8EDF050E82
:10019000156E77DF102AF5D7020E1A6E86DF050E70
:1001A000156E6FDF106A105003080DE3036A1050DC
:1001B000110FE96E000E0320EA6EEFCF18F0176AF8
:1001C000ADDF102AF0D7ACEF01F0ADEF01F0142C49
:1001D00001D003D0400E156E01D0156A010E135CDC
:1001E000152615508009166E176A186E97DF1200D3
:1001F0001250070A07E00B0A0AE0060A10E0020A9A
:1002000014E018D0010E136E146EE1DF18D0176AD7
:10021000010E186E83DF020E156E33DF10D0010E53
:10022000136E020E146ED3DF0AD0176A100E186E0A
:1002300075DF05D0010E176E12C018F06FDF1200C7
:100240000900F5520CE0F6CF10F0F7CF11F0F5CF22
:1002500012F0CEDF10C0F6FF11C0F7FFF1D7120089
:10026000106A042A0450210850E20750FC0F12E2E1
:10027000040F8BEF01F0EF0E956E836E0BD0DF0E47
:10028000956E836E07D0BF0E956E836E03D07F0E82
:10029000956E836E05A009D083500F0B0F0804E103
:1002A000059006C010F0066A2FD083500F0B0F0880
:1002B00026E08350010B02E1116A11D08350020B3A
:1002C00003E1010E116E0BD08350040B03E1020E0B
:1002D000116E05D08350080B02E1030E116E115010
:1002E000040DF350136A126E036A07501224016E54
:1002F00013500322015086DE066E058005D0072AC2
:100300000750040801E1076A046AFF0E956E10C0E9
:1003100001F0C0EF01F0E824F76AF736310FF66E0E
:10032000030EF7220A00F550FA6E0800F550F96E38
:1003300076027E0286028E02F86AD09E096A086AF8
:10034000C150C00B0F09C16E070EB46E046A059050
:10035000066A076A0F6AFFD638D7010E136E146E4D
:1003600036DF240EF66E000EF76E6ADF010E136E96
:10037000020E146E2CDF0F6A0F50030816E370D7BD
:1003800001C00AF00A5210E0036A0F500B0FE96E29
:10039000000E0320EA6E0AC0EFFF0AC012F028DF49
:1003A000320E156E6EDE0F2AE7D70B5031081EE1B4
:1003B0000C5032081BE10D50330818E10E50340880
:1003C00015E1010E136E146E02DF380EF66E000E8C
:1003D000F76E36DF92928982280E106EFA0E156E35
:1003E00050DE102EFBD79292899216D0010E136E1A
:1003F000146EEDDE4A0EF66E000EF76E21DF010E72
:10040000136E020E146EE3DE5C0EF66E000EF76ED7
:1004100017DFC80E156E35DE010E136E146ED7DEB3
:0E0420006E0EF66E000EF76E0BDF97D7030020
:020000040030CA
:0E00000024CE1E1E0085A1000FC00FE00F4091
:00000001FF
;PIC18F4550
;CRC=1E70  CREATED="23-oct.-24 19:06"
