:10000000E0EF05F0F76A140FF66E000EF722090014
:10001000F5501200313233413435364237383943E6
:100020002A30234450415353574F5244202020201C
:1000300020202020000042415445524941202020E8
:10004000202020202020000050415353574F52447D
:100050003C2D2D20202020200000424154455249B3
:10006000413C2D2D20202020202000002020202079
:100070002020202020202020202020200000494E69
:1000800047524553452050415353574F52443A200D
:1000900000002A00564552444520202020202020E0
:1000A000202020200000415A554C202020202020D4
:1000B00020202020202000004E4152414E4A412065
:1000C00020202020202020200000524F53412020BB
:1000D0002020202020202020202000004552524FA8
:1000E00052202020202020202020202000004241DB
:1000F00054455249413A2020202020202020000051
:10010000256425252020202020202020202020209C
:10011000200043414D4249415220424154455249F9
:10012000413A000050524543415543494F4E20212A
:100130002121202000005245434152474152204294
:100140004154455249410000EA6A200EE96EEF50E1
:100150000EE00F0E016E006A002EFED7012EFBD7B7
:100160008F0E006E002EFED70000EF2EF2D7120089
:100170002738F00B006E0F0E8A1400108A6E0000F4
:100180008A80070E006E002EFED700D08A901200E3
:100190008150006E00380F0B016E12000F0E931489
:1001A000F009936E8A8400008A800000F1DF01C0AC
:1001B00027F08A9000008A80030E006E002EFED782
:1001C00000D0E6DF01C026F08A900F0E9314936EE4
:1001D0002738006EF00E001600502610016EF6EF64
:1001E00000F09390939293948A92D8D701C026F00E
:1001F00001BEFBD78A9224B08A8200008A94000054
:100200008A902538266E0F0E261626C027F0B0DFFE
:1002100025500F0B266E276EABDF1200280E156ED1
:100220000C0E166E010E176E060E186E8A908A92CC
:100230008A940F0E9314936E9390939293940F0E4F
:10024000206E82DF010E146E1450030808E3030EC3
:10025000276E8EDF050E206E77DF142AF5D7020E8B
:10026000276E86DF050E206E6FDF146A14500308B8
:100270000DE3036A1450150FE96E000E0320EA6EB9
:10028000EFCF25F0246AADDF142AF0D7FEEF05F09A
:10029000212C01D003D0400E226E01D0226A010E23
:1002A000205C222622508009236E246A256E99DF65
:1002B00012001F50070A07E00B0A0AE0060A10E0C6
:1002C000020A14E018D0010E206E216EE1DF18D072
:1002D000246A010E256E85DF020E206E35DF10D0F8
:1002E000010E206E020E216ED3DF0AD0246A100E9A
:1002F000256E77DF05D0010E246E1FC025F071DF5B
:1003000012000900F5520CE0F6CF1BF0F7CF1CF0FD
:10031000F5CF1FF0CEDF1BC0F6FF1CC0F7FFF1D7F3
:10032000120092928992010E206E216EB1DF240E8E
:10033000F66E000EF76EE5DF010E206E020E216EE6
:10034000A7DF360EF66E000EF76EDBDF1A520AE1FB
:10035000010E206E216E9CDF480EF66E000EF76EC9
:10036000D0DF0CD01A2C0AD0010E206E090E216E9F
:100370008FDF5A0EF66E000EF76EC3DF12001A6A98
:10038000042A0450210850E20750FC0F12E2040F27
:100390001AEF02F0EF0E956E836E0BD0DF0E956EA6
:1003A000836E07D0BF0E956E836E03D07F0E956E61
:1003B000836E05A009D083500F0B0F0804E1059050
:1003C00006C01AF0066A2FD083500F0B0F0826E0E4
:1003D0008350010B02E11B6A11D08350020B03E131
:1003E000010E1B6E0BD08350040B03E1020E1B6E3B
:1003F00005D08350080B02E1030E1B6E1B50040D49
:10040000F3501D6A1C6E036A07501C24016E1D50B8
:1004100003220150F7DD066E058005D0072A07503C
:10042000040801E1076A046AFF0E956E1AC001F024
:1004300049EF02F0E824F76AF7364F0FF66E040E24
:10044000F7220A00F550FA6E0800F550F96E940391
:100450009C03A403AC03196A010E206E020E216EE8
:1004600017DF6C0EF66E000EF76E4BDF010E206E7E
:10047000216E0EDF7E0EF66E000EF76E42DF010E6D
:10048000206E020E216E04DF196A1950030818E36A
:1004900076D701C014F0145212E0036A1950150FF8
:1004A000E96E000E0320EA6E14C0EFFF920EF66EA6
:1004B000000EF76E26DF320E206E46DE192AE5D7D3
:1004C000155031081EE1165032081BE11750330851
:1004D00018E11850340815E1010E206E216ED8DEA7
:1004E000940EF66E000EF76E0CDF94908B80020E69
:1004F0001A6E960E206E28DE1A2EFBD794908B90E3
:1005000073D0155034081EE1165033081BE1175004
:10051000320818E11850310815E1010E206E216EE5
:10052000B7DEA60EF66E000EF76EEBDE94928B82AF
:10053000020E1A6E960E206E07DE1A2EFBD79492CC
:100540008B9252D0155035081EE1165036081BE12B
:100550001750370818E11850380815E1010E206EC1
:10056000216E96DEB80EF66E000EF76ECADE94941B
:100570008B84020E1A6E960E206EE6DD1A2EFBD7C5
:1005800094948B9431D0155038081EE116503708DA
:100590001BE11750360818E11850350815E1010E17
:1005A000206E216E75DECA0EF66E000EF76EA9DEA5
:1005B00094988B88020E1A6E960E206EC5DD1A2E48
:1005C000FBD794988B9810D0010E206E216E60DEC0
:1005D000DC0EF66E000EF76E94DE92928982C80EE3
:1005E000206EB2DD929289921A6A9BDE28EF06F0A5
:1005F0008E0E006E1CC001F01BC002F0036A015297
:1006000009E102C001F0026A080E005E015202E137
:10061000006A08D0D89001BE04D002360136000628
:10062000F9D7019E45EF04F01F50D8B471D0006E89
:100630002350D8B46DD0002604E3810E002668E272
:1006400004D07F0E005E64E363E020C027F02450F6
:10065000271A208E248E22502602F4CF29F0215012
:100660002502F4CF03F0F3CF28F02602F350292619
:10067000F4502822000E032222502502F35029268E
:10068000F4502822000E026A032202222050260281
:10069000F3502826F4500322000E02222050250297
:1006A000F3500326F4500222000E016A0122225068
:1006B0002402F3502826F4500322000E02220122C5
:1006C00021502402F3500326F4500222000E01228E
:1006D00020502402F3500226F4500122002A01BEC9
:1006E00005D028360336023601360006000E28AE45
:1006F0000AD0032A02220122015005E1025003E13F
:10070000035001E1002A27BE018E27AE019E04D0CE
:10071000006A016A026A036A12001F50D8B4A5D0A9
:100720002B6E2350D8B4A1D02B5E05E37F0E2B2671
:10073000D8B09BD006D0810E2B5ED8A096D0D8B46E
:1007400094D02BC000F0016A026A036A2A6A20C0B2
:1007500029F0298E21C028F022C027F0190E2B6E17
:100760002650275E0DE2010E285E0AE2295E08E2AD
:100770002A5E06E22A2A292A282A2650272628D055
:100780002550285E12E2010E295E0FE22A5E0DE27C
:100790002A2A292A255028262650272619E3282ADE
:1007A00017E1292A15E12A2A13D024508009295E4D
:1007B0000EE2010E2A5E0BE22A2A24508009292625
:1007C00025502826E9E3292AE7E12A2AE5D70380EC
:1007D0002B2E01D00BD0D8902736283629362A3632
:1007E000D8900336023601362C36BAD72CA006D064
:1007F000D8900132023203322C3202D0000635E0AA
:100800002CBE1ED0D8902736283629362A362650B8
:10081000275E07E2010E285E04E2295E02E22A5EFC
:100820001AE32550285E05E2010E295E02E22A5EE7
:1008300012E324508009295E03E2010E2A5E0BE3D5
:10084000032A09E1022A07E1012A05E1002A0DE055
:1008500001320232033220C02BF024502B1A2BAE6F
:1008600002D0018E06D0019E04D0006A016A026A9D
:10087000036A1200C282C2B2FED71A6AC4CF19F04C
:100880001AC01CF019C01BF0B3D603C022F002C07E
:1008900021F001C020F000C01FF00BC026F00AC0FC
:1008A00025F009C024F008C023F0BEDE03C01EF00E
:1008B00002C01DF001C01CF000C01BF003C022F0FC
:1008C00002C021F001C020F000C01FF0266A256A96
:1008D000200E246E810E236EA7DE03C01EF002C020
:1008E0001DF001C01CF000C01BF003C022F002C0CC
:1008F00021F001C020F000C01FF0266AC00E256E56
:100900007F0E246E880E236E08DF12008E0E006E9E
:100910001950005E1AC002F01BC001F0028E005296
:1009200009E0D890025202E1015204E002320132A1
:10093000002EF7D71AAE05D0011E021E012AD8B428
:10094000022A55EF05F02050016A1F5C03E21FC028
:1009500000F00CD0006A080E216E1F3600362050C1
:10096000005CD8B0006E0136212EF7D71200200EA1
:100970001AA8300E1B6E19C000F019AE08D0001E68
:10098000002A00C019F02D0E1B6E1A8E1A8001501D
:1009900019C01FF0640E206ED6DF00C019F0300EB3
:1009A00001241C6E19C01FF00A0E206ECCDF300E21
:1009B00000241E6E300E01241D6E1BC000F0300E90
:1009C0001C5C04E01A821ABE1A8412D01BC01CF0F0
:1009D000200E1B6E300E1D5C04E01A801ABE1A82B7
:1009E00007D0D8A41A8004E11CC01DF0200E1C6E94
:1009F0001AB405D01AB206D01AB007D009D01BC05D
:100A00001FF057DC1CC01FF054DC1DC01FF051DC70
:100A10001EC01FF04EDC71EF05F00900F6CF1AF092
:100A2000F7CF1BF0F5CF1FF044DC1AC0F6FF1BC058
:100A3000F7FF192EF2D77CEF05F01CDF03C017F08B
:100A400002C016F001C015F000C014F017C022F06B
:100A500016C021F015C020F014C01FF0266A256AC8
:100A6000200E246E810E236E58DE03C01CF002C0DF
:100A70001BF001C01AF000C019F003C022F002C040
:100A800021F001C020F000C01FF0266A256A480E40
:100A9000246E850E236EC8DD03C01CF002C01BF05F
:100AA00001C01AF000C019F031D701C018F0185079
:100AB000640802E2640E186E010E206E216E48EC8E
:100AC00001F0EE0EF66E000EF76E1BDC010E206ECE
:100AD000020E216E48EC01F018C019F0180E1A6EC3
:100AE00046D7250E1F6E59EC01F0040EF66E010E6E
:100AF000F76E0D0E196E91D71850180816E39292E2
:100B00008982010E206E216E48EC01F0120EF66E05
:100B1000010EF76E81EC01F0020E196EC80E206E08
:100B2000A4EC00F0192EFAD702D092928992020E0C
:100B3000196E960E206EA4EC00F0192EFAD71A6AE0
:100B400091EC01F02CEF06F015C01CF019501C1AA6
:100B50001CAE05D0D894D89015BED8802FD015C023
:100B60001CF018C01DF014501D5E06E01CAE26D00F
:100B7000D850010AD86E22D019C01DF015501D5E44
:100B800006E01CAE1BD0D850010AD86E17D01AC090
:100B90001DF016501D5E06E01CAE10D0D850010AA4
:100BA000D86E0CD01BC01DF017501D5E06E01CAEA9
:100BB00005D0D850010AD86E01D0D8904CEF06F07D
:100BC000F86AD09E0B6A0A6A096A810E086E0D6A7D
:100BD0000C6AC150C00B0F09C16E070EB46E046AD7
:100BE0000590066A076A0E6A030E966EFF0E926EF5
:100BF000000E956EFD0E926E0EEF01F0C050C00B10
:100C0000C06EC09EC280C150C00B0E09C16E0EC026
:100C10001AF091EC01F096800F6A84B00F2A0F52FF
:100C20000EE10E5202E1010E01D0000E0E6E640EB6
:100C3000206EA4EC00F00EC01AF091EC01F0968248
:100C40000F6A84B20F2A0F5210E10E5202E103D450
:100C500003D00E2C01D0F1D60E6A640E206EA4ECE7
:100C600000F00EC01AF091EC01F004DE03C013F0A6
:100C700002C012F001C011F000C010F013C017F054
:100C800012C016F011C015F010C014F01B6A1A6AD9
:100C9000196A7F0E186E58D71AE392928982010E54
:100CA000206E216E48EC01F0240EF66E010EF76EF8
:100CB00081EC01F0010E206E020E216E48EC01F075
:100CC000360EF66E010EF76E81EC01F006D09292B0
:0E0CD00089920EC01AF091EC01F09DD703003E
:020000040030CA
:0E00000024CE1E1E0085A1000FC00FE00F4091
:00000001FF
;PIC18F4550
;CRC=7304  CREATED="25-nov.-24 13:35"
